S010000042546C65644156522E7372656360
S11300000C943E000C945B000C945B000C945B001D
S11300100C945B000C945B000C945B000C945B00F0
S11300200C945B000C945B000C945B000C945B00E0
S11300300C945B000C94FE000C945B000C945B002D
S11300400C945B000C945B000C945B000C945B00C0
S11300500C945B000C945B000C945B000C945B00B0
S11300600C945B000C945B000C945B000C945B00A0
S11300700C945B000C945B000C945B0011241FBE79
S1130080CFEFD8E0DEBFCDBF11E0A0E0B1E0ECEFF0
S1130090F2E002C005900D92A230B107D9F721E039
S11300A0A2E0B1E001C01D92A830B207E1F70E94BE
S11300B05E010C947C010C9400008091000181305D
S11300C0A1F040F1823019F0833091F108950E943B
S11300D0BE00811141C081E08093000184E690E07C
S11300E0909307018093060108950E94BE00813019
S11300F041F482E0809300011092070110920601FE
S113010008958091060190910701892B29F5109299
S1130110000108950E94BE008130F1F483E08093D1
S1130120000184E690E0909307018093060108950E
S11301300E94BE00811107C01092000110920701B5
S11301401092060108958091060190910701892B70
S113015019F482E0809300010895809100018823BE
S113016021F0833011F081E0089580E0089581B199
S11301708E7F81B982B1816082B9089590B1892F4F
S1130180817090FD81E0089587B1836087B988B15B
S11301908C7F88B9089588B1816088B9089588B141
S11301A08E7F88B9089598B182E0892788B9089527
S11301B09FB7F89410920201109203011092040167
S11301C01092050110928000E1E8F0E01082109294
S11301D08500109284008081886080832CE730E061
S11301E03093890020938800AFE6B0E08C91826060
S11301F08C938081836080839FBF08951F920F92A8
S11302000FB60F9211248F939F93AF93BF93809156
S1130210020190910301A0910401B091050101969E
S1130220A11DB11D8093020190930301A0930401C9
S1130230B09305018091060190910701009729F080
S113024001979093070180930601BF91AF919F910D
S11302508F910F900FBE0F901F9018952FB7F894A1
S11302606091020170910301809104019091050154
S11302702FBF08958F929F92AF92BF92CF92DF9239
S1130280EF92FF924B015C010E942E016B017C01F5
S11302900E942E01DC01CB018C199D09AE09BF0916
S11302A088159905AA05BB0598F3FF90EF90DF9098
S11302B0CF90BF90AF909F908F9008950E94C400FC
S11302C00E94B7000E94D80078940E945D000E94AA
S11302D0AD00882319F0813061F0F7CF0E94CB0084
S11302E068EE73E080E090E00E943A010E94D3003F
S10F02F0ECCF0E94CF00E9CFF894FFCFC0
S10502FC0200FA
S9030000FC
